:1000000012C019C018C017C016C015C014C013C044
:1000100012C011C010C00FC00EC00DC00CC00BC06C
:100020000AC009C008C011241FBECFE5D4E0DEBF5E
:10003000CDBF02D079C0E4CF8FEF81BB17BA12BA1F
:1000400081E088BB60E071E041E050E0E0E4B0991D
:1000500049C0653010F46F5FFACF72BB2FEF34E305
:100060008CE0215030408040E1F700C0000037C0F4
:10007000B0990AC09FEFF4E32CE09150F04020408B
:10008000E1F700C00000E3CF9A01082E02C0220F62
:10009000331F0A94E2F722BB3FEFF4E32CE0315028
:1000A000F0402040E1F700C0000001968830910543
:1000B000F9F61EC0B09B13C09A01082E02C0220F91
:1000C000331F0A94E2F722BB3FEFF4E32CE03150F8
:1000D000F0402040E1F700C00000019759F7B099C7
:1000E00016C0C8CF662311F06150B1CF12BAAFCF9E
:1000F000B09BF5CFE2BB3FEF84E39CE03150804002
:100100009040E1F700C0000085E090E0D3CF72BBE3
:10011000FFEF24E33CE0F15020403040E1F700C025
:0C012000000081E090E0A4CFF894FFCF35
:00000001FF
